{
    "contractName": "Domains",
    "abi": [
        {
            "inputs": [
                {
                    "internalType": "string",
                    "name": "_tld",
                    "type": "string"
                }
            ],
            "stateMutability": "payable",
            "type": "constructor"
        },
        {
            "anonymous": false,
            "inputs": [
                {
                    "indexed": true,
                    "internalType": "address",
                    "name": "owner",
                    "type": "address"
                },
                {
                    "indexed": true,
                    "internalType": "address",
                    "name": "approved",
                    "type": "address"
                },
                {
                    "indexed": true,
                    "internalType": "uint256",
                    "name": "tokenId",
                    "type": "uint256"
                }
            ],
            "name": "Approval",
            "type": "event"
        },
        {
            "anonymous": false,
            "inputs": [
                {
                    "indexed": true,
                    "internalType": "address",
                    "name": "owner",
                    "type": "address"
                },
                {
                    "indexed": true,
                    "internalType": "address",
                    "name": "operator",
                    "type": "address"
                },
                {
                    "indexed": false,
                    "internalType": "bool",
                    "name": "approved",
                    "type": "bool"
                }
            ],
            "name": "ApprovalForAll",
            "type": "event"
        },
        {
            "anonymous": false,
            "inputs": [
                {
                    "indexed": false,
                    "internalType": "string",
                    "name": "",
                    "type": "string"
                },
                {
                    "indexed": false,
                    "internalType": "address",
                    "name": "",
                    "type": "address"
                }
            ],
            "name": "NewDomainRegistered",
            "type": "event"
        },
        {
            "anonymous": false,
            "inputs": [
                {
                    "indexed": true,
                    "internalType": "address",
                    "name": "from",
                    "type": "address"
                },
                {
                    "indexed": true,
                    "internalType": "address",
                    "name": "to",
                    "type": "address"
                },
                {
                    "indexed": true,
                    "internalType": "uint256",
                    "name": "tokenId",
                    "type": "uint256"
                }
            ],
            "name": "Transfer",
            "type": "event"
        },
        {
            "inputs": [
                {
                    "internalType": "address",
                    "name": "to",
                    "type": "address"
                },
                {
                    "internalType": "uint256",
                    "name": "tokenId",
                    "type": "uint256"
                }
            ],
            "name": "approve",
            "outputs": [],
            "stateMutability": "nonpayable",
            "type": "function"
        },
        {
            "inputs": [
                {
                    "internalType": "address",
                    "name": "owner",
                    "type": "address"
                }
            ],
            "name": "balanceOf",
            "outputs": [
                {
                    "internalType": "uint256",
                    "name": "",
                    "type": "uint256"
                }
            ],
            "stateMutability": "view",
            "type": "function"
        },
        {
            "inputs": [
                {
                    "internalType": "uint256",
                    "name": "tokenId",
                    "type": "uint256"
                }
            ],
            "name": "getApproved",
            "outputs": [
                {
                    "internalType": "address",
                    "name": "",
                    "type": "address"
                }
            ],
            "stateMutability": "view",
            "type": "function"
        },
        {
            "inputs": [
                {
                    "internalType": "string",
                    "name": "name",
                    "type": "string"
                }
            ],
            "name": "getOwnerAddress",
            "outputs": [
                {
                    "internalType": "address",
                    "name": "",
                    "type": "address"
                }
            ],
            "stateMutability": "view",
            "type": "function"
        },
        {
            "inputs": [
                {
                    "internalType": "string",
                    "name": "name",
                    "type": "string"
                }
            ],
            "name": "getRecord",
            "outputs": [
                {
                    "internalType": "string",
                    "name": "",
                    "type": "string"
                }
            ],
            "stateMutability": "view",
            "type": "function"
        },
        {
            "inputs": [
                {
                    "internalType": "address",
                    "name": "owner",
                    "type": "address"
                },
                {
                    "internalType": "address",
                    "name": "operator",
                    "type": "address"
                }
            ],
            "name": "isApprovedForAll",
            "outputs": [
                {
                    "internalType": "bool",
                    "name": "",
                    "type": "bool"
                }
            ],
            "stateMutability": "view",
            "type": "function"
        },
        {
            "inputs": [],
            "name": "name",
            "outputs": [
                {
                    "internalType": "string",
                    "name": "",
                    "type": "string"
                }
            ],
            "stateMutability": "view",
            "type": "function"
        },
        {
            "inputs": [
                {
                    "internalType": "uint256",
                    "name": "tokenId",
                    "type": "uint256"
                }
            ],
            "name": "ownerOf",
            "outputs": [
                {
                    "internalType": "address",
                    "name": "",
                    "type": "address"
                }
            ],
            "stateMutability": "view",
            "type": "function"
        },
        {
            "inputs": [
                {
                    "internalType": "string",
                    "name": "name",
                    "type": "string"
                }
            ],
            "name": "price",
            "outputs": [
                {
                    "internalType": "uint256",
                    "name": "",
                    "type": "uint256"
                }
            ],
            "stateMutability": "pure",
            "type": "function"
        },
        {
            "inputs": [
                {
                    "internalType": "string",
                    "name": "name",
                    "type": "string"
                }
            ],
            "name": "register",
            "outputs": [],
            "stateMutability": "payable",
            "type": "function"
        },
        {
            "inputs": [
                {
                    "internalType": "address",
                    "name": "from",
                    "type": "address"
                },
                {
                    "internalType": "address",
                    "name": "to",
                    "type": "address"
                },
                {
                    "internalType": "uint256",
                    "name": "tokenId",
                    "type": "uint256"
                }
            ],
            "name": "safeTransferFrom",
            "outputs": [],
            "stateMutability": "nonpayable",
            "type": "function"
        },
        {
            "inputs": [
                {
                    "internalType": "address",
                    "name": "from",
                    "type": "address"
                },
                {
                    "internalType": "address",
                    "name": "to",
                    "type": "address"
                },
                {
                    "internalType": "uint256",
                    "name": "tokenId",
                    "type": "uint256"
                },
                {
                    "internalType": "bytes",
                    "name": "_data",
                    "type": "bytes"
                }
            ],
            "name": "safeTransferFrom",
            "outputs": [],
            "stateMutability": "nonpayable",
            "type": "function"
        },
        {
            "inputs": [
                {
                    "internalType": "address",
                    "name": "operator",
                    "type": "address"
                },
                {
                    "internalType": "bool",
                    "name": "approved",
                    "type": "bool"
                }
            ],
            "name": "setApprovalForAll",
            "outputs": [],
            "stateMutability": "nonpayable",
            "type": "function"
        },
        {
            "inputs": [
                {
                    "internalType": "string",
                    "name": "name",
                    "type": "string"
                },
                {
                    "internalType": "string",
                    "name": "record",
                    "type": "string"
                }
            ],
            "name": "setRecord",
            "outputs": [],
            "stateMutability": "nonpayable",
            "type": "function"
        },
        {
            "inputs": [
                {
                    "internalType": "bytes4",
                    "name": "interfaceId",
                    "type": "bytes4"
                }
            ],
            "name": "supportsInterface",
            "outputs": [
                {
                    "internalType": "bool",
                    "name": "",
                    "type": "bool"
                }
            ],
            "stateMutability": "view",
            "type": "function"
        },
        {
            "inputs": [],
            "name": "symbol",
            "outputs": [
                {
                    "internalType": "string",
                    "name": "",
                    "type": "string"
                }
            ],
            "stateMutability": "view",
            "type": "function"
        },
        {
            "inputs": [],
            "name": "tld",
            "outputs": [
                {
                    "internalType": "string",
                    "name": "",
                    "type": "string"
                }
            ],
            "stateMutability": "view",
            "type": "function"
        },
        {
            "inputs": [
                {
                    "internalType": "uint256",
                    "name": "tokenId",
                    "type": "uint256"
                }
            ],
            "name": "tokenURI",
            "outputs": [
                {
                    "internalType": "string",
                    "name": "",
                    "type": "string"
                }
            ],
            "stateMutability": "view",
            "type": "function"
        },
        {
            "inputs": [
                {
                    "internalType": "address",
                    "name": "from",
                    "type": "address"
                },
                {
                    "internalType": "address",
                    "name": "to",
                    "type": "address"
                },
                {
                    "internalType": "uint256",
                    "name": "tokenId",
                    "type": "uint256"
                }
            ],
            "name": "transferFrom",
            "outputs": [],
            "stateMutability": "nonpayable",
            "type": "function"
        }
    ],
    "bytecode": "61092060405261086b608081815290620023f560a03980516200002b916008916020909101906200010e565b5060408051808201909152600d8082526c1e17ba32bc3a1f1e17b9bb339f60991b602090920191825262000062916009916200010e565b5060405162002c6038038062002c608339810160408190526200008591620001ca565b604080518082018252601081526f445842204e616d65205365727669636560801b602080830191825283518085019094526003845262222c2160e91b908401528151919291620000d8916000916200010e565b508051620000ee9060019060208401906200010e565b50508151620001069150600a9060208401906200010e565b5050620002e3565b8280546200011c90620002a6565b90600052602060002090601f0160209004810192826200014057600085556200018b565b82601f106200015b57805160ff19168380011785556200018b565b828001600101855582156200018b579182015b828111156200018b5782518255916020019190600101906200016e565b50620001999291506200019d565b5090565b5b808211156200019957600081556001016200019e565b634e487b7160e01b600052604160045260246000fd5b60006020808385031215620001de57600080fd5b82516001600160401b0380821115620001f657600080fd5b818501915085601f8301126200020b57600080fd5b815181811115620002205762000220620001b4565b604051601f8201601f19908116603f011681019083821181831017156200024b576200024b620001b4565b8160405282815288868487010111156200026457600080fd5b600093505b8284101562000288578484018601518185018701529285019262000269565b828411156200029a5760008684830101525b98975050505050505050565b600181811c90821680620002bb57607f821691505b60208210811415620002dd57634e487b7160e01b600052602260045260246000fd5b50919050565b61210280620002f36000396000f3fe6080604052600436106101145760003560e01c80636352211e116100a0578063c1880a9811610064578063c1880a9814610302578063c87b56dd14610322578063e985e9c514610342578063f2c298be1461038b578063fe2c61981461039e57600080fd5b80636352211e1461025f57806370a082311461027f57806395d89b41146102ad578063a22cb465146102c2578063b88d4fde146102e257600080fd5b806311dd8845116100e757806311dd8845146101ca5780631d170e7c146101ea57806323b872dd1461020a5780632d5514321461022a57806342842e0e1461023f57600080fd5b806301ffc9a71461011957806306fdde031461014e578063081812fc14610170578063095ea7b3146101a8575b600080fd5b34801561012557600080fd5b50610139610134366004611883565b6103c8565b60405190151581526020015b60405180910390f35b34801561015a57600080fd5b5061016361041a565b60405161014591906118f8565b34801561017c57600080fd5b5061019061018b36600461190b565b6104ac565b6040516001600160a01b039091168152602001610145565b3480156101b457600080fd5b506101c86101c3366004611940565b610539565b005b3480156101d657600080fd5b506101636101e53660046119b3565b61064f565b3480156101f657600080fd5b506101906102053660046119b3565b610702565b34801561021657600080fd5b506101c86102253660046119f5565b610737565b34801561023657600080fd5b50610163610768565b34801561024b57600080fd5b506101c861025a3660046119f5565b6107f6565b34801561026b57600080fd5b5061019061027a36600461190b565b610811565b34801561028b57600080fd5b5061029f61029a366004611a31565b610888565b604051908152602001610145565b3480156102b957600080fd5b5061016361090f565b3480156102ce57600080fd5b506101c86102dd366004611a4c565b61091e565b3480156102ee57600080fd5b506101c86102fd366004611a9e565b61092d565b34801561030e57600080fd5b506101c861031d366004611b7a565b610965565b34801561032e57600080fd5b5061016361033d36600461190b565b6109d9565b34801561034e57600080fd5b5061013961035d366004611be6565b6001600160a01b03918216600090815260056020908152604080832093909416825291909152205460ff1690565b6101c86103993660046119b3565b610b50565b3480156103aa57600080fd5b5061029f6103b93660046119b3565b6706f05b59d3b2000092915050565b60006001600160e01b031982166380ac58cd60e01b14806103f957506001600160e01b03198216635b5e139f60e01b145b8061041457506301ffc9a760e01b6001600160e01b03198316145b92915050565b60606000805461042990611c19565b80601f016020809104026020016040519081016040528092919081815260200182805461045590611c19565b80156104a25780601f10610477576101008083540402835291602001916104a2565b820191906000526020600020905b81548152906001019060200180831161048557829003601f168201915b5050505050905090565b60006104b782610d1b565b61051d5760405162461bcd60e51b815260206004820152602c60248201527f4552433732313a20617070726f76656420717565727920666f72206e6f6e657860448201526b34b9ba32b73a103a37b5b2b760a11b60648201526084015b60405180910390fd5b506000908152600460205260409020546001600160a01b031690565b600061054482610811565b9050806001600160a01b0316836001600160a01b031614156105b25760405162461bcd60e51b815260206004820152602160248201527f4552433732313a20617070726f76616c20746f2063757272656e74206f776e656044820152603960f91b6064820152608401610514565b336001600160a01b03821614806105ce57506105ce813361035d565b6106405760405162461bcd60e51b815260206004820152603860248201527f4552433732313a20617070726f76652063616c6c6572206973206e6f74206f7760448201527f6e6572206e6f7220617070726f76656420666f7220616c6c00000000000000006064820152608401610514565b61064a8383610d38565b505050565b6060600c8383604051610663929190611c54565b9081526020016040518091039020805461067c90611c19565b80601f01602080910402602001604051908101604052809291908181526020018280546106a890611c19565b80156106f55780601f106106ca576101008083540402835291602001916106f5565b820191906000526020600020905b8154815290600101906020018083116106d857829003601f168201915b5050505050905092915050565b6000600b8383604051610716929190611c54565b908152604051908190036020019020546001600160a01b0316905092915050565b6107413382610da6565b61075d5760405162461bcd60e51b815260040161051490611c64565b61064a838383610e8c565b600a805461077590611c19565b80601f01602080910402602001604051908101604052809291908181526020018280546107a190611c19565b80156107ee5780601f106107c3576101008083540402835291602001916107ee565b820191906000526020600020905b8154815290600101906020018083116107d157829003601f168201915b505050505081565b61064a8383836040518060200160405280600081525061092d565b6000818152600260205260408120546001600160a01b0316806104145760405162461bcd60e51b815260206004820152602960248201527f4552433732313a206f776e657220717565727920666f72206e6f6e657869737460448201526832b73a103a37b5b2b760b91b6064820152608401610514565b60006001600160a01b0382166108f35760405162461bcd60e51b815260206004820152602a60248201527f4552433732313a2062616c616e636520717565727920666f7220746865207a65604482015269726f206164647265737360b01b6064820152608401610514565b506001600160a01b031660009081526003602052604090205490565b60606001805461042990611c19565b610929338383611028565b5050565b6109373383610da6565b6109535760405162461bcd60e51b815260040161051490611c64565b61095f848484846110f7565b50505050565b336001600160a01b0316600b8585604051610981929190611c54565b908152604051908190036020019020546001600160a01b0316146109a457600080fd5b8181600c86866040516109b8929190611c54565b9081526040519081900360200190206109d292909161175d565b5050505050565b60606109e482610d1b565b610a4a5760405162461bcd60e51b815260206004820152603160248201527f45524337323155524953746f726167653a2055524920717565727920666f72206044820152703737b732bc34b9ba32b73a103a37b5b2b760791b6064820152608401610514565b60008281526006602052604081208054610a6390611c19565b80601f0160208091040260200160405190810160405280929190818152602001828054610a8f90611c19565b8015610adc5780601f10610ab157610100808354040283529160200191610adc565b820191906000526020600020905b815481529060010190602001808311610abf57829003601f168201915b505050505090506000610afa60408051602081019091526000815290565b9050805160001415610b0d575092915050565b815115610b3f578082604051602001610b27929190611cb5565b60405160208183030381529060405292505050919050565b610b488461112a565b949350505050565b60006001600160a01b0316600b8383604051610b6d929190611c54565b908152604051908190036020019020546001600160a01b031614610b9057600080fd5b6706f05b59d3b2000034811115610be15760405162461bcd60e51b8152602060048201526015602482015274139bdd08195b9bdd59da0813585d1a58c81c185a59605a1b6044820152606401610514565b60008383600a604051602001610bf993929190611d7e565b604051602081830303815290604052905060006008826009604051602001610c2393929190611da7565b60405160208183030381529060405290506000610c3f60075490565b9050846000610c4d82611202565b90506000610c8586610c5e87611300565b84604051602001610c7193929190611dda565b604051602081830303815290604052611300565b9050600081604051602001610c9a9190611ed2565b6040516020818303038152906040529050610cb53386611454565b610cbf858261146e565b33600b8b8b604051610cd2929190611c54565b90815260405190819003602001902080546001600160a01b03929092166001600160a01b0319909216919091179055610d0f600780546001019055565b50505050505050505050565b6000908152600260205260409020546001600160a01b0316151590565b600081815260046020526040902080546001600160a01b0319166001600160a01b0384169081179091558190610d6d82610811565b6001600160a01b03167f8c5be1e5ebec7d5bd14f71427d1e84f3dd0314c0f7b2291e5b200ac8c7c3b92560405160405180910390a45050565b6000610db182610d1b565b610e125760405162461bcd60e51b815260206004820152602c60248201527f4552433732313a206f70657261746f7220717565727920666f72206e6f6e657860448201526b34b9ba32b73a103a37b5b2b760a11b6064820152608401610514565b6000610e1d83610811565b9050806001600160a01b0316846001600160a01b03161480610e585750836001600160a01b0316610e4d846104ac565b6001600160a01b0316145b80610b4857506001600160a01b0380821660009081526005602090815260408083209388168352929052205460ff16610b48565b826001600160a01b0316610e9f82610811565b6001600160a01b031614610f035760405162461bcd60e51b815260206004820152602560248201527f4552433732313a207472616e736665722066726f6d20696e636f72726563742060448201526437bbb732b960d91b6064820152608401610514565b6001600160a01b038216610f655760405162461bcd60e51b8152602060048201526024808201527f4552433732313a207472616e7366657220746f20746865207a65726f206164646044820152637265737360e01b6064820152608401610514565b610f70600082610d38565b6001600160a01b0383166000908152600360205260408120805460019290610f99908490611f2d565b90915550506001600160a01b0382166000908152600360205260408120805460019290610fc7908490611f44565b909155505060008181526002602052604080822080546001600160a01b0319166001600160a01b0386811691821790925591518493918716917fddf252ad1be2c89b69c2b068fc378daa952ba7f163c4a11628f55a4df523b3ef91a4505050565b816001600160a01b0316836001600160a01b0316141561108a5760405162461bcd60e51b815260206004820152601960248201527f4552433732313a20617070726f766520746f2063616c6c6572000000000000006044820152606401610514565b6001600160a01b03838116600081815260056020908152604080832094871680845294825291829020805460ff191686151590811790915591519182527f17307eab39ab6107e8899845ad3d59bd9653f200f220920489ca2b5937696c31910160405180910390a3505050565b611102848484610e8c565b61110e848484846114f9565b61095f5760405162461bcd60e51b815260040161051490611f5c565b606061113582610d1b565b6111995760405162461bcd60e51b815260206004820152602f60248201527f4552433732314d657461646174613a2055524920717565727920666f72206e6f60448201526e3732bc34b9ba32b73a103a37b5b2b760891b6064820152608401610514565b60006111b060408051602081019091526000815290565b905060008151116111d057604051806020016040528060008152506111fb565b806111da84611202565b6040516020016111eb929190611cb5565b6040516020818303038152906040525b9392505050565b6060816112265750506040805180820190915260018152600360fc1b602082015290565b8160005b8115611250578061123a81611fae565b91506112499050600a83611fdf565b915061122a565b60008167ffffffffffffffff81111561126b5761126b611a88565b6040519080825280601f01601f191660200182016040528015611295576020820181803683370190505b5090505b8415610b48576112aa600183611f2d565b91506112b7600a86611ff3565b6112c2906030611f44565b60f81b8183815181106112d7576112d7612007565b60200101906001600160f81b031916908160001a9053506112f9600a86611fdf565b9450611299565b606081516000141561132057505060408051602081019091526000815290565b600060405180606001604052806040815260200161208d604091399050600060038451600261134f9190611f44565b6113599190611fdf565b61136490600461201d565b67ffffffffffffffff81111561137c5761137c611a88565b6040519080825280601f01601f1916602001820160405280156113a6576020820181803683370190505b509050600182016020820185865187015b80821015611412576003820191508151603f8160121c168501518453600184019350603f81600c1c168501518453600184019350603f8160061c168501518453600184019350603f81168501518453506001830192506113b7565b505060038651066001811461142e576002811461144157611449565b603d6001830353603d6002830353611449565b603d60018303535b509195945050505050565b6109298282604051806020016040528060008152506115f7565b61147782610d1b565b6114da5760405162461bcd60e51b815260206004820152602e60248201527f45524337323155524953746f726167653a2055524920736574206f66206e6f6e60448201526d32bc34b9ba32b73a103a37b5b2b760911b6064820152608401610514565b6000828152600660209081526040909120825161064a928401906117e1565b60006001600160a01b0384163b156115ec57604051630a85bd0160e11b81526001600160a01b0385169063150b7a029061153d90339089908890889060040161203c565b6020604051808303816000875af1925050508015611578575060408051601f3d908101601f191682019092526115759181019061206f565b60015b6115d2573d8080156115a6576040519150601f19603f3d011682016040523d82523d6000602084013e6115ab565b606091505b5080516115ca5760405162461bcd60e51b815260040161051490611f5c565b805181602001fd5b6001600160e01b031916630a85bd0160e11b149050610b48565b506001949350505050565b611601838361162a565b61160e60008484846114f9565b61064a5760405162461bcd60e51b815260040161051490611f5c565b6001600160a01b0382166116805760405162461bcd60e51b815260206004820181905260248201527f4552433732313a206d696e7420746f20746865207a65726f20616464726573736044820152606401610514565b61168981610d1b565b156116d65760405162461bcd60e51b815260206004820152601c60248201527f4552433732313a20746f6b656e20616c7265616479206d696e746564000000006044820152606401610514565b6001600160a01b03821660009081526003602052604081208054600192906116ff908490611f44565b909155505060008181526002602052604080822080546001600160a01b0319166001600160a01b03861690811790915590518392907fddf252ad1be2c89b69c2b068fc378daa952ba7f163c4a11628f55a4df523b3ef908290a45050565b82805461176990611c19565b90600052602060002090601f01602090048101928261178b57600085556117d1565b82601f106117a45782800160ff198235161785556117d1565b828001600101855582156117d1579182015b828111156117d15782358255916020019190600101906117b6565b506117dd929150611855565b5090565b8280546117ed90611c19565b90600052602060002090601f01602090048101928261180f57600085556117d1565b82601f1061182857805160ff19168380011785556117d1565b828001600101855582156117d1579182015b828111156117d157825182559160200191906001019061183a565b5b808211156117dd5760008155600101611856565b6001600160e01b03198116811461188057600080fd5b50565b60006020828403121561189557600080fd5b81356111fb8161186a565b60005b838110156118bb5781810151838201526020016118a3565b8381111561095f5750506000910152565b600081518084526118e48160208601602086016118a0565b601f01601f19169290920160200192915050565b6020815260006111fb60208301846118cc565b60006020828403121561191d57600080fd5b5035919050565b80356001600160a01b038116811461193b57600080fd5b919050565b6000806040838503121561195357600080fd5b61195c83611924565b946020939093013593505050565b60008083601f84011261197c57600080fd5b50813567ffffffffffffffff81111561199457600080fd5b6020830191508360208285010111156119ac57600080fd5b9250929050565b600080602083850312156119c657600080fd5b823567ffffffffffffffff8111156119dd57600080fd5b6119e98582860161196a565b90969095509350505050565b600080600060608486031215611a0a57600080fd5b611a1384611924565b9250611a2160208501611924565b9150604084013590509250925092565b600060208284031215611a4357600080fd5b6111fb82611924565b60008060408385031215611a5f57600080fd5b611a6883611924565b915060208301358015158114611a7d57600080fd5b809150509250929050565b634e487b7160e01b600052604160045260246000fd5b60008060008060808587031215611ab457600080fd5b611abd85611924565b9350611acb60208601611924565b925060408501359150606085013567ffffffffffffffff80821115611aef57600080fd5b818701915087601f830112611b0357600080fd5b813581811115611b1557611b15611a88565b604051601f8201601f19908116603f01168101908382118183101715611b3d57611b3d611a88565b816040528281528a6020848701011115611b5657600080fd5b82602086016020830137600060208483010152809550505050505092959194509250565b60008060008060408587031215611b9057600080fd5b843567ffffffffffffffff80821115611ba857600080fd5b611bb48883890161196a565b90965094506020870135915080821115611bcd57600080fd5b50611bda8782880161196a565b95989497509550505050565b60008060408385031215611bf957600080fd5b611c0283611924565b9150611c1060208401611924565b90509250929050565b600181811c90821680611c2d57607f821691505b60208210811415611c4e57634e487b7160e01b600052602260045260246000fd5b50919050565b8183823760009101908152919050565b60208082526031908201527f4552433732313a207472616e736665722063616c6c6572206973206e6f74206f6040820152701ddb995c881b9bdc88185c1c1c9bdd9959607a1b606082015260800190565b60008351611cc78184602088016118a0565b835190830190611cdb8183602088016118a0565b01949350505050565b8054600090600181811c9080831680611cfe57607f831692505b6020808410821415611d2057634e487b7160e01b600052602260045260246000fd5b818015611d345760018114611d4557611d72565b60ff19861689528489019650611d72565b60008881526020902060005b86811015611d6a5781548b820152908501908301611d51565b505084890196505b50505050505092915050565b82848237601760f91b818401908152600090611d9d6001820185611ce4565b9695505050505050565b6000611db38286611ce4565b8451611dc38183602089016118a0565b611dcf81830186611ce4565b979650505050505050565b693d913730b6b2911d101160b11b81528351600090611e0081600a8501602089016118a0565b7f222c20226465736372697074696f6e223a20224120646f6d61696e206f6e2074600a918401918201527f6865204e696e6a61206e616d652073657276696365222c2022696d616765223a602a8201527f2022646174613a696d6167652f7376672b786d6c3b6261736536342c00000000604a8201528451611e898160668401602089016118a0565b6b1116113632b733ba34111d1160a11b606692909101918201528351611eb68160728401602088016118a0565b61227d60f01b6072929091019182015260740195945050505050565b7f646174613a6170706c69636174696f6e2f6a736f6e3b6261736536342c000000815260008251611f0a81601d8501602087016118a0565b91909101601d0192915050565b634e487b7160e01b600052601160045260246000fd5b600082821015611f3f57611f3f611f17565b500390565b60008219821115611f5757611f57611f17565b500190565b60208082526032908201527f4552433732313a207472616e7366657220746f206e6f6e20455243373231526560408201527131b2b4bb32b91034b6b83632b6b2b73a32b960711b606082015260800190565b6000600019821415611fc257611fc2611f17565b5060010190565b634e487b7160e01b600052601260045260246000fd5b600082611fee57611fee611fc9565b500490565b60008261200257612002611fc9565b500690565b634e487b7160e01b600052603260045260246000fd5b600081600019048311821515161561203757612037611f17565b500290565b6001600160a01b0385811682528416602082015260408101839052608060608201819052600090611d9d908301846118cc565b60006020828403121561208157600080fd5b81516111fb8161186a56fe4142434445464748494a4b4c4d4e4f505152535455565758595a6162636465666768696a6b6c6d6e6f707172737475767778797a303132333435363738392b2fa2646970667358221220b013831d1cbca9923a71992924f7de5e4a3ade677792186d95a30d80054e0abd64736f6c634300080c00333c73766720786d6c6e733d22687474703a2f2f7777772e77332e6f72672f323030302f737667222077696474683d2232373022206865696768743d22323730222066696c6c3d226e6f6e65223e3c706174682066696c6c3d2275726c282342292220643d224d302030683237307632373048307a222f3e3c646566733e3c66696c7465722069643d22412220636f6c6f722d696e746572706f6c6174696f6e2d66696c746572733d2273524742222066696c746572556e6974733d227573657253706163654f6e55736522206865696768743d22323730222077696474683d22323730223e3c666544726f70536861646f772064783d2230222064793d22312220737464446576696174696f6e3d22322220666c6f6f642d6f7061636974793d222e323235222077696474683d223230302522206865696768743d2232303025222f3e3c2f66696c7465723e3c2f646566733e3c7061746820643d224d37322e3836332034322e393439632d2e3636382d2e3338372d312e3432362d2e35392d322e3139372d2e3539732d312e3532392e3230342d322e3139372e35396c2d31302e30383120362e3033322d362e383520332e3933342d31302e30383120362e303332632d2e3636382e3338372d312e3432362e35392d322e3139372e3539732d312e3532392d2e3230342d322e3139372d2e35396c2d382e3031332d342e37323161342e353220342e35322030203020312d312e3538392d312e363136632d2e3338342d2e3636352d2e3539342d312e3431382d2e3630382d322e313837762d392e3331632d2e3031332d2e3737352e3138352d312e3533382e3537322d322e32303861342e323520342e323520302030203120312e3632352d312e3539356c372e3838342d342e3539632e3636382d2e33383720312e3432362d2e353920322e3139372d2e353973312e3532392e32303420322e3139372e35396c372e38383420342e353961342e353220342e353220302030203120312e35383920312e363136632e3338342e3636352e35393420312e3431382e36303820322e31383776362e3033326c362e38352d342e303635762d362e303332632e3031332d2e3737352d2e3138352d312e3533382d2e3537322d322e32303861342e323520342e32352030203020302d312e3632352d312e3539354c34312e3435362032342e3539632d2e3636382d2e3338372d312e3432362d2e35392d322e3139372d2e3539732d312e3532392e3230342d322e3139372e35396c2d31342e38363420382e36353561342e323520342e32352030203020302d312e36323520312e353935632d2e3338372e36372d2e35383520312e3433342d2e35373220322e3230387631372e343431632d2e3031332e3737352e31383520312e3533382e35373220322e32303861342e323520342e323520302030203020312e36323520312e3539356c31342e38363420382e363535632e3636382e33383720312e3432362e353920322e3139372e353973312e3532392d2e32303420322e3139372d2e35396c31302e3038312d352e39303120362e38352d342e3036352031302e3038312d352e393031632e3636382d2e33383720312e3432362d2e353920322e3139372d2e353973312e3532392e32303420322e3139372e35396c372e38383420342e353961342e353220342e353220302030203120312e35383920312e363136632e3338342e3636352e35393420312e3431382e36303820322e31383776392e333131632e3031332e3737352d2e31383520312e3533382d2e35373220322e32303861342e323520342e32352030203020312d312e36323520312e3539356c2d372e38383420342e373231632d2e3636382e3338372d312e3432362e35392d322e3139372e3539732d312e3532392d2e3230342d322e3139372d2e35396c2d372e3838342d342e353961342e353220342e35322030203020312d312e3538392d312e363136632d2e3338352d2e3636352d2e3539342d312e3431382d2e3630382d322e313837762d362e3033326c2d362e383520342e30363576362e303332632d2e3031332e3737352e31383520312e3533382e35373220322e32303861342e323520342e323520302030203020312e36323520312e3539356c31342e38363420382e363535632e3636382e33383720312e3432362e353920322e3139372e353973312e3532392d2e32303420322e3139372d2e35396c31342e3836342d382e363535632e3635372d2e33393420312e3230342d2e393520312e3538392d312e363136732e3539342d312e3431382e3630392d322e3138375635352e353338632e3031332d2e3737352d2e3138352d312e3533382d2e3537322d322e32303861342e323520342e32352030203020302d312e3632352d312e3539356c2d31342e3939332d382e3738367a222066696c6c3d2223666666222f3e3c646566733e3c6c696e6561724772616469656e742069643d2242222078313d2230222079313d2230222078323d22323730222079323d2232373022206772616469656e74556e6974733d227573657253706163654f6e557365223e3c73746f702073746f702d636f6c6f723d2223636235656565222f3e3c73746f70206f66667365743d2231222073746f702d636f6c6f723d2223306364376534222073746f702d6f7061636974793d222e3939222f3e3c2f6c696e6561724772616469656e743e3c2f646566733e3c7465787420783d2233322e352220793d223233312220666f6e742d73697a653d223237222066696c6c3d2223666666222066696c7465723d2275726c282341292220666f6e742d66616d696c793d22506c7573204a616b617274612053616e732c44656a6156752053616e732c4e6f746f20436f6c6f7220456d6f6a692c4170706c6520436f6c6f7220456d6f6a692c73616e732d73657269662220666f6e742d7765696768743d22626f6c64223e",
    "sourcePath": "c:/Users/parvb/Documents/DXB-Domains/Domains.sol",
    "compiler": {
        "name": "solc",
        "version": "0.8.12+commit.f00d7308"
    },
    "functionHashes": {
        "approve(address,uint256)": "095ea7b3",
        "balanceOf(address)": "70a08231",
        "getApproved(uint256)": "081812fc",
        "getOwnerAddress(string)": "1d170e7c",
        "getRecord(string)": "11dd8845",
        "isApprovedForAll(address,address)": "e985e9c5",
        "name()": "06fdde03",
        "ownerOf(uint256)": "6352211e",
        "price(string)": "fe2c6198",
        "register(string)": "f2c298be",
        "safeTransferFrom(address,address,uint256)": "42842e0e",
        "safeTransferFrom(address,address,uint256,bytes)": "b88d4fde",
        "setApprovalForAll(address,bool)": "a22cb465",
        "setRecord(string,string)": "c1880a98",
        "supportsInterface(bytes4)": "01ffc9a7",
        "symbol()": "95d89b41",
        "tld()": "2d551432",
        "tokenURI(uint256)": "c87b56dd",
        "transferFrom(address,address,uint256)": "23b872dd"
    },
    "gasEstimates": {
        "creation": {
            "codeDepositCost": "1690000",
            "executionCost": "infinite",
            "totalCost": "infinite"
        },
        "external": {
            "approve(address,uint256)": "infinite",
            "balanceOf(address)": "2634",
            "getApproved(uint256)": "4799",
            "getOwnerAddress(string)": "infinite",
            "getRecord(string)": "infinite",
            "isApprovedForAll(address,address)": "infinite",
            "name()": "infinite",
            "ownerOf(uint256)": "2579",
            "price(string)": "606",
            "register(string)": "infinite",
            "safeTransferFrom(address,address,uint256)": "infinite",
            "safeTransferFrom(address,address,uint256,bytes)": "infinite",
            "setApprovalForAll(address,bool)": "26775",
            "setRecord(string,string)": "infinite",
            "supportsInterface(bytes4)": "534",
            "symbol()": "infinite",
            "tld()": "infinite",
            "tokenURI(uint256)": "infinite",
            "transferFrom(address,address,uint256)": "infinite"
        }
    }
}