{
    "contractName": "StringUtils",
    "abi": [
        {
            "inputs": [
                {
                    "internalType": "string",
                    "name": "_a",
                    "type": "string"
                },
                {
                    "internalType": "string",
                    "name": "_b",
                    "type": "string"
                }
            ],
            "name": "compare",
            "outputs": [
                {
                    "internalType": "int256",
                    "name": "",
                    "type": "int256"
                }
            ],
            "stateMutability": "pure",
            "type": "function"
        },
        {
            "inputs": [
                {
                    "internalType": "string",
                    "name": "_a",
                    "type": "string"
                },
                {
                    "internalType": "string",
                    "name": "_b",
                    "type": "string"
                }
            ],
            "name": "equal",
            "outputs": [
                {
                    "internalType": "bool",
                    "name": "",
                    "type": "bool"
                }
            ],
            "stateMutability": "pure",
            "type": "function"
        },
        {
            "inputs": [
                {
                    "internalType": "string",
                    "name": "_haystack",
                    "type": "string"
                },
                {
                    "internalType": "string",
                    "name": "_needle",
                    "type": "string"
                }
            ],
            "name": "indexOf",
            "outputs": [
                {
                    "internalType": "int256",
                    "name": "",
                    "type": "int256"
                }
            ],
            "stateMutability": "pure",
            "type": "function"
        }
    ],
    "bytecode": "6104f661003a600b82828239805160001a60731461002d57634e487b7160e01b600052600060045260246000fd5b30600052607381538281f3fe730000000000000000000000000000000000000000301460806040526004361061004b5760003560e01c80633a96fdd71461005057806346bdca9a146100765780638a0807b714610099575b600080fd5b61006361005e3660046103fd565b6100ac565b6040519081526020015b60405180910390f35b6100896100843660046103fd565b6101d3565b604051901515815260200161006d565b6100636100a73660046103fd565b6101e7565b8151815160009184918491908111156100c3575080515b60005b81811015610197578281815181106100e0576100e0610461565b602001015160f81c60f81b6001600160f81b03191684828151811061010757610107610461565b01602001516001600160f81b031916101561012a576000199450505050506101cd565b82818151811061013c5761013c610461565b602001015160f81c60f81b6001600160f81b03191684828151811061016357610163610461565b01602001516001600160f81b03191611156101855760019450505050506101cd565b8061018f8161048d565b9150506100c6565b508151835110156101af5760001993505050506101cd565b8151835111156101c557600193505050506101cd565b600093505050505b92915050565b60006101df83836100ac565b159392505050565b815160009083908390600111806101ff575060018151105b8061020b575081518151115b1561021c57600019925050506101cd565b6fffffffffffffffffffffffffffffffff8251111561024157600019925050506101cd565b6000805b835181101561034c578260008151811061026157610261610461565b602001015160f81c60f81b6001600160f81b03191684828151811061028857610288610461565b01602001516001600160f81b031916141561033a57600191505b8251821080156102bb575083516102b983836104a8565b105b801561030f57508282815181106102d4576102d4610461565b01602001516001600160f81b031916846102ee84846104a8565b815181106102fe576102fe610461565b01602001516001600160f81b031916145b15610326578161031e8161048d565b9250506102a2565b825182141561033a5793506101cd92505050565b806103448161048d565b915050610245565b5060001993505050506101cd565b634e487b7160e01b600052604160045260246000fd5b600082601f83011261038157600080fd5b813567ffffffffffffffff8082111561039c5761039c61035a565b604051601f8301601f19908116603f011681019082821181831017156103c4576103c461035a565b816040528381528660208588010111156103dd57600080fd5b836020870160208301376000602085830101528094505050505092915050565b6000806040838503121561041057600080fd5b823567ffffffffffffffff8082111561042857600080fd5b61043486838701610370565b9350602085013591508082111561044a57600080fd5b5061045785828601610370565b9150509250929050565b634e487b7160e01b600052603260045260246000fd5b634e487b7160e01b600052601160045260246000fd5b60006000198214156104a1576104a1610477565b5060010190565b600082198211156104bb576104bb610477565b50019056fea26469706673582212206d8a00ac6a9675a7be118786cef45e7c84756932dd63f4c2069671e20a52e06e64736f6c634300080c0033",
    "sourcePath": "c:/Users/parvb/Documents/DXB-Domains/stringUtils.sol",
    "compiler": {
        "name": "solc",
        "version": "0.8.12+commit.f00d7308"
    },
    "functionHashes": {
        "compare(string,string)": "3a96fdd7",
        "equal(string,string)": "46bdca9a",
        "indexOf(string,string)": "8a0807b7"
    },
    "gasEstimates": {
        "creation": {
            "codeDepositCost": "254000",
            "executionCost": "328",
            "totalCost": "254328"
        },
        "external": {
            "compare(string,string)": "infinite",
            "equal(string,string)": "infinite",
            "indexOf(string,string)": "infinite"
        }
    }
}